{
  "_format": "hh-sol-artifact-1",
  "contractName": "MyEpicGame",
  "sourceName": "contracts/MyEpicGame.sol",
  "abi": [
    {
      "inputs": [
        {
          "internalType": "string[]",
          "name": "characterNames",
          "type": "string[]"
        },
        {
          "internalType": "string[]",
          "name": "characterImageURIs",
          "type": "string[]"
        },
        {
          "internalType": "uint256[]",
          "name": "characterHp",
          "type": "uint256[]"
        },
        {
          "internalType": "uint256[]",
          "name": "characterAttackDmg",
          "type": "uint256[]"
        },
        {
          "internalType": "string",
          "name": "bossName",
          "type": "string"
        },
        {
          "internalType": "string",
          "name": "bossImageURI",
          "type": "string"
        },
        {
          "internalType": "uint256",
          "name": "bossHp",
          "type": "uint256"
        },
        {
          "internalType": "uint256",
          "name": "bossAttackDamage",
          "type": "uint256"
        },
        {
          "internalType": "uint64",
          "name": "subscriptionId",
          "type": "uint64"
        }
      ],
      "stateMutability": "nonpayable",
      "type": "constructor"
    },
    {
      "inputs": [
        {
          "internalType": "address",
          "name": "have",
          "type": "address"
        },
        {
          "internalType": "address",
          "name": "want",
          "type": "address"
        }
      ],
      "name": "OnlyCoordinatorCanFulfill",
      "type": "error"
    },
    {
      "anonymous": false,
      "inputs": [
        {
          "indexed": true,
          "internalType": "address",
          "name": "owner",
          "type": "address"
        },
        {
          "indexed": true,
          "internalType": "address",
          "name": "approved",
          "type": "address"
        },
        {
          "indexed": true,
          "internalType": "uint256",
          "name": "tokenId",
          "type": "uint256"
        }
      ],
      "name": "Approval",
      "type": "event"
    },
    {
      "anonymous": false,
      "inputs": [
        {
          "indexed": true,
          "internalType": "address",
          "name": "owner",
          "type": "address"
        },
        {
          "indexed": true,
          "internalType": "address",
          "name": "operator",
          "type": "address"
        },
        {
          "indexed": false,
          "internalType": "bool",
          "name": "approved",
          "type": "bool"
        }
      ],
      "name": "ApprovalForAll",
      "type": "event"
    },
    {
      "anonymous": false,
      "inputs": [
        {
          "indexed": false,
          "internalType": "address",
          "name": "sender",
          "type": "address"
        },
        {
          "indexed": false,
          "internalType": "uint256",
          "name": "newBossHp",
          "type": "uint256"
        },
        {
          "indexed": false,
          "internalType": "uint256",
          "name": "newPlayerHp",
          "type": "uint256"
        }
      ],
      "name": "AttackComplete",
      "type": "event"
    },
    {
      "anonymous": false,
      "inputs": [
        {
          "indexed": false,
          "internalType": "address",
          "name": "sender",
          "type": "address"
        },
        {
          "indexed": false,
          "internalType": "uint256",
          "name": "tokenId",
          "type": "uint256"
        },
        {
          "indexed": false,
          "internalType": "uint256",
          "name": "characterIndex",
          "type": "uint256"
        }
      ],
      "name": "CharacterNFTMinted",
      "type": "event"
    },
    {
      "anonymous": false,
      "inputs": [
        {
          "indexed": true,
          "internalType": "address",
          "name": "from",
          "type": "address"
        },
        {
          "indexed": true,
          "internalType": "address",
          "name": "to",
          "type": "address"
        },
        {
          "indexed": true,
          "internalType": "uint256",
          "name": "tokenId",
          "type": "uint256"
        }
      ],
      "name": "Transfer",
      "type": "event"
    },
    {
      "inputs": [
        {
          "internalType": "address",
          "name": "to",
          "type": "address"
        },
        {
          "internalType": "uint256",
          "name": "tokenId",
          "type": "uint256"
        }
      ],
      "name": "approve",
      "outputs": [],
      "stateMutability": "nonpayable",
      "type": "function"
    },
    {
      "inputs": [
        {
          "internalType": "bool",
          "name": "critical",
          "type": "bool"
        }
      ],
      "name": "attackBoss",
      "outputs": [],
      "stateMutability": "nonpayable",
      "type": "function"
    },
    {
      "inputs": [
        {
          "internalType": "address",
          "name": "owner",
          "type": "address"
        }
      ],
      "name": "balanceOf",
      "outputs": [
        {
          "internalType": "uint256",
          "name": "",
          "type": "uint256"
        }
      ],
      "stateMutability": "view",
      "type": "function"
    },
    {
      "inputs": [],
      "name": "bigBoss",
      "outputs": [
        {
          "internalType": "string",
          "name": "name",
          "type": "string"
        },
        {
          "internalType": "string",
          "name": "imageURI",
          "type": "string"
        },
        {
          "internalType": "uint256",
          "name": "hp",
          "type": "uint256"
        },
        {
          "internalType": "uint256",
          "name": "maxHp",
          "type": "uint256"
        },
        {
          "internalType": "uint256",
          "name": "attackDamage",
          "type": "uint256"
        }
      ],
      "stateMutability": "view",
      "type": "function"
    },
    {
      "inputs": [],
      "name": "checkIfUserHasNFT",
      "outputs": [
        {
          "components": [
            {
              "internalType": "uint256",
              "name": "characterIndex",
              "type": "uint256"
            },
            {
              "internalType": "string",
              "name": "name",
              "type": "string"
            },
            {
              "internalType": "string",
              "name": "imageURI",
              "type": "string"
            },
            {
              "internalType": "uint256",
              "name": "hp",
              "type": "uint256"
            },
            {
              "internalType": "uint256",
              "name": "maxHp",
              "type": "uint256"
            },
            {
              "internalType": "uint256",
              "name": "attackDamage",
              "type": "uint256"
            }
          ],
          "internalType": "struct MyEpicGame.CharacterAttributes",
          "name": "",
          "type": "tuple"
        }
      ],
      "stateMutability": "view",
      "type": "function"
    },
    {
      "inputs": [],
      "name": "getAllDefaultCharacters",
      "outputs": [
        {
          "components": [
            {
              "internalType": "uint256",
              "name": "characterIndex",
              "type": "uint256"
            },
            {
              "internalType": "string",
              "name": "name",
              "type": "string"
            },
            {
              "internalType": "string",
              "name": "imageURI",
              "type": "string"
            },
            {
              "internalType": "uint256",
              "name": "hp",
              "type": "uint256"
            },
            {
              "internalType": "uint256",
              "name": "maxHp",
              "type": "uint256"
            },
            {
              "internalType": "uint256",
              "name": "attackDamage",
              "type": "uint256"
            }
          ],
          "internalType": "struct MyEpicGame.CharacterAttributes[]",
          "name": "",
          "type": "tuple[]"
        }
      ],
      "stateMutability": "view",
      "type": "function"
    },
    {
      "inputs": [
        {
          "internalType": "uint256",
          "name": "tokenId",
          "type": "uint256"
        }
      ],
      "name": "getApproved",
      "outputs": [
        {
          "internalType": "address",
          "name": "",
          "type": "address"
        }
      ],
      "stateMutability": "view",
      "type": "function"
    },
    {
      "inputs": [],
      "name": "getBigBoss",
      "outputs": [
        {
          "components": [
            {
              "internalType": "string",
              "name": "name",
              "type": "string"
            },
            {
              "internalType": "string",
              "name": "imageURI",
              "type": "string"
            },
            {
              "internalType": "uint256",
              "name": "hp",
              "type": "uint256"
            },
            {
              "internalType": "uint256",
              "name": "maxHp",
              "type": "uint256"
            },
            {
              "internalType": "uint256",
              "name": "attackDamage",
              "type": "uint256"
            }
          ],
          "internalType": "struct MyEpicGame.BigBoss",
          "name": "",
          "type": "tuple"
        }
      ],
      "stateMutability": "view",
      "type": "function"
    },
    {
      "inputs": [],
      "name": "getOwners",
      "outputs": [
        {
          "internalType": "address[]",
          "name": "",
          "type": "address[]"
        },
        {
          "internalType": "uint256[]",
          "name": "",
          "type": "uint256[]"
        }
      ],
      "stateMutability": "view",
      "type": "function"
    },
    {
      "inputs": [
        {
          "internalType": "address",
          "name": "owner",
          "type": "address"
        },
        {
          "internalType": "address",
          "name": "operator",
          "type": "address"
        }
      ],
      "name": "isApprovedForAll",
      "outputs": [
        {
          "internalType": "bool",
          "name": "",
          "type": "bool"
        }
      ],
      "stateMutability": "view",
      "type": "function"
    },
    {
      "inputs": [
        {
          "internalType": "uint256",
          "name": "_characterIndex",
          "type": "uint256"
        }
      ],
      "name": "mintCharacterNFT",
      "outputs": [],
      "stateMutability": "nonpayable",
      "type": "function"
    },
    {
      "inputs": [],
      "name": "name",
      "outputs": [
        {
          "internalType": "string",
          "name": "",
          "type": "string"
        }
      ],
      "stateMutability": "view",
      "type": "function"
    },
    {
      "inputs": [
        {
          "internalType": "uint256",
          "name": "",
          "type": "uint256"
        }
      ],
      "name": "nftHolderAttributes",
      "outputs": [
        {
          "internalType": "uint256",
          "name": "characterIndex",
          "type": "uint256"
        },
        {
          "internalType": "string",
          "name": "name",
          "type": "string"
        },
        {
          "internalType": "string",
          "name": "imageURI",
          "type": "string"
        },
        {
          "internalType": "uint256",
          "name": "hp",
          "type": "uint256"
        },
        {
          "internalType": "uint256",
          "name": "maxHp",
          "type": "uint256"
        },
        {
          "internalType": "uint256",
          "name": "attackDamage",
          "type": "uint256"
        }
      ],
      "stateMutability": "view",
      "type": "function"
    },
    {
      "inputs": [
        {
          "internalType": "address",
          "name": "",
          "type": "address"
        }
      ],
      "name": "nftHolders",
      "outputs": [
        {
          "internalType": "uint256",
          "name": "",
          "type": "uint256"
        }
      ],
      "stateMutability": "view",
      "type": "function"
    },
    {
      "inputs": [
        {
          "internalType": "uint256",
          "name": "tokenId",
          "type": "uint256"
        }
      ],
      "name": "ownerOf",
      "outputs": [
        {
          "internalType": "address",
          "name": "",
          "type": "address"
        }
      ],
      "stateMutability": "view",
      "type": "function"
    },
    {
      "inputs": [
        {
          "internalType": "uint256",
          "name": "",
          "type": "uint256"
        }
      ],
      "name": "owners",
      "outputs": [
        {
          "internalType": "address",
          "name": "",
          "type": "address"
        }
      ],
      "stateMutability": "view",
      "type": "function"
    },
    {
      "inputs": [
        {
          "internalType": "uint256",
          "name": "requestId",
          "type": "uint256"
        },
        {
          "internalType": "uint256[]",
          "name": "randomWords",
          "type": "uint256[]"
        }
      ],
      "name": "rawFulfillRandomWords",
      "outputs": [],
      "stateMutability": "nonpayable",
      "type": "function"
    },
    {
      "inputs": [],
      "name": "requestRandomWords",
      "outputs": [],
      "stateMutability": "nonpayable",
      "type": "function"
    },
    {
      "inputs": [],
      "name": "s_randomnum",
      "outputs": [
        {
          "internalType": "uint256",
          "name": "",
          "type": "uint256"
        }
      ],
      "stateMutability": "view",
      "type": "function"
    },
    {
      "inputs": [],
      "name": "s_requestId",
      "outputs": [
        {
          "internalType": "uint256",
          "name": "",
          "type": "uint256"
        }
      ],
      "stateMutability": "view",
      "type": "function"
    },
    {
      "inputs": [
        {
          "internalType": "address",
          "name": "from",
          "type": "address"
        },
        {
          "internalType": "address",
          "name": "to",
          "type": "address"
        },
        {
          "internalType": "uint256",
          "name": "tokenId",
          "type": "uint256"
        }
      ],
      "name": "safeTransferFrom",
      "outputs": [],
      "stateMutability": "nonpayable",
      "type": "function"
    },
    {
      "inputs": [
        {
          "internalType": "address",
          "name": "from",
          "type": "address"
        },
        {
          "internalType": "address",
          "name": "to",
          "type": "address"
        },
        {
          "internalType": "uint256",
          "name": "tokenId",
          "type": "uint256"
        },
        {
          "internalType": "bytes",
          "name": "_data",
          "type": "bytes"
        }
      ],
      "name": "safeTransferFrom",
      "outputs": [],
      "stateMutability": "nonpayable",
      "type": "function"
    },
    {
      "inputs": [
        {
          "internalType": "address",
          "name": "operator",
          "type": "address"
        },
        {
          "internalType": "bool",
          "name": "approved",
          "type": "bool"
        }
      ],
      "name": "setApprovalForAll",
      "outputs": [],
      "stateMutability": "nonpayable",
      "type": "function"
    },
    {
      "inputs": [
        {
          "internalType": "bytes4",
          "name": "interfaceId",
          "type": "bytes4"
        }
      ],
      "name": "supportsInterface",
      "outputs": [
        {
          "internalType": "bool",
          "name": "",
          "type": "bool"
        }
      ],
      "stateMutability": "view",
      "type": "function"
    },
    {
      "inputs": [],
      "name": "symbol",
      "outputs": [
        {
          "internalType": "string",
          "name": "",
          "type": "string"
        }
      ],
      "stateMutability": "view",
      "type": "function"
    },
    {
      "inputs": [
        {
          "internalType": "uint256",
          "name": "",
          "type": "uint256"
        }
      ],
      "name": "tokenId",
      "outputs": [
        {
          "internalType": "uint256",
          "name": "",
          "type": "uint256"
        }
      ],
      "stateMutability": "view",
      "type": "function"
    },
    {
      "inputs": [
        {
          "internalType": "uint256",
          "name": "_tokenId",
          "type": "uint256"
        }
      ],
      "name": "tokenURI",
      "outputs": [
        {
          "internalType": "string",
          "name": "",
          "type": "string"
        }
      ],
      "stateMutability": "view",
      "type": "function"
    },
    {
      "inputs": [
        {
          "internalType": "address",
          "name": "from",
          "type": "address"
        },
        {
          "internalType": "address",
          "name": "to",
          "type": "address"
        },
        {
          "internalType": "uint256",
          "name": "tokenId",
          "type": "uint256"
        }
      ],
      "name": "transferFrom",
      "outputs": [],
      "stateMutability": "nonpayable",
      "type": "function"
    }
  ],
  "bytecode": "0x60a0604052736168499c0cffcacd319c818142124b7a15e857ab600760006101000a81548173ffffffffffffffffffffffffffffffffffffffff021916908373ffffffffffffffffffffffffffffffffffffffff1602179055507fd89b2bf150e3b9e13446986e571fb9cab24b13cea0a43ea20a6049a85cc807cc60001b600855620186a0600960006101000a81548163ffffffff021916908363ffffffff1602179055506003600960046101000a81548161ffff021916908361ffff1602179055506001600960066101000a81548163ffffffff021916908363ffffffff160217905550348015620000f157600080fd5b506040516200654938038062006549833981810160405281019062000117919062000ca5565b600760009054906101000a900473ffffffffffffffffffffffffffffffffffffffff166040518060400160405280600681526020017f4865726f657300000000000000000000000000000000000000000000000000008152506040518060400160405280600481526020017f4845524f000000000000000000000000000000000000000000000000000000008152508160009080519060200190620001be929190620009f6565b508060019080519060200190620001d7929190620009f6565b5050508073ffffffffffffffffffffffffffffffffffffffff1660808173ffffffffffffffffffffffffffffffffffffffff1660601b8152505050600760009054906101000a900473ffffffffffffffffffffffffffffffffffffffff16600660006101000a81548173ffffffffffffffffffffffffffffffffffffffff021916908373ffffffffffffffffffffffffffffffffffffffff16021790555033600c60006101000a81548173ffffffffffffffffffffffffffffffffffffffff021916908373ffffffffffffffffffffffffffffffffffffffff16021790555080600660146101000a81548167ffffffffffffffff021916908367ffffffffffffffff1602179055506040518060a00160405280868152602001858152602001848152602001848152602001838152506012600082015181600001908051906020019062000326929190620009f6565b50602082015181600101908051906020019062000345929190620009f6565b50604082015181600201556060820151816003015560808201518160040155905050620004c86040518060600160405280602a81526020016200651f602a913960126000018054620003979062001052565b80601f0160208091040260200160405190810160405280929190818152602001828054620003c59062001052565b8015620004165780601f10620003ea5761010080835404028352916020019162000416565b820191906000526020600020905b815481529060010190602001808311620003f857829003601f168201915b505050505060126002015460126001018054620004339062001052565b80601f0160208091040260200160405190810160405280929190818152602001828054620004619062001052565b8015620004b25780601f106200048657610100808354040283529160200191620004b2565b820191906000526020600020905b8154815290600101906020018083116200049457829003601f168201915b50505050506200090b60201b620021761760201c565b60005b8951811015620008e45760106040518060c001604052808381526020018c848151811062000522577f4e487b7100000000000000000000000000000000000000000000000000000000600052603260045260246000fd5b602002602001015181526020018b848151811062000569577f4e487b7100000000000000000000000000000000000000000000000000000000600052603260045260246000fd5b602002602001015181526020018a8481518110620005b0577f4e487b7100000000000000000000000000000000000000000000000000000000600052603260045260246000fd5b602002602001015181526020018a8481518110620005f7577f4e487b7100000000000000000000000000000000000000000000000000000000600052603260045260246000fd5b602002602001015181526020018984815181106200063e577f4e487b7100000000000000000000000000000000000000000000000000000000600052603260045260246000fd5b602002602001015181525090806001815401808255809150506001900390600052602060002090600602016000909190919091506000820151816000015560208201518160010190805190602001906200069a929190620009f6565b506040820151816002019080519060200190620006b9929190620009f6565b50606082015181600301556080820151816004015560a08201518160050155505060006010828154811062000717577f4e487b7100000000000000000000000000000000000000000000000000000000600052603260045260246000fd5b90600052602060002090600602016040518060c0016040529081600082015481526020016001820180546200074c9062001052565b80601f01602080910402602001604051908101604052809291908181526020018280546200077a9062001052565b8015620007cb5780601f106200079f57610100808354040283529160200191620007cb565b820191906000526020600020905b815481529060010190602001808311620007ad57829003601f168201915b50505050508152602001600282018054620007e69062001052565b80601f0160208091040260200160405190810160405280929190818152602001828054620008149062001052565b8015620008655780601f10620008395761010080835404028352916020019162000865565b820191906000526020600020905b8154815290600101906020018083116200084757829003601f168201915b5050505050815260200160038201548152602001600482015481526020016005820154815250509050620008cc604051806060016040528060258152602001620064fa602591398260200151836060015184604001516200090b60201b620021761760201c565b50600181620008dc919062000fa1565b9050620004cb565b50620008fc600f620009b760201b620022181760201c565b50505050505050505062001190565b620009b18484848460405160240162000928949392919062000e66565b6040516020818303038152906040527f8d142cdd000000000000000000000000000000000000000000000000000000007bffffffffffffffffffffffffffffffffffffffffffffffffffffffff19166020820180517bffffffffffffffffffffffffffffffffffffffffffffffffffffffff8381831617835250505050620009cd60201b60201c565b50505050565b6001816000016000828254019250508190555050565b60008151905060006a636f6e736f6c652e6c6f679050602083016000808483855afa5050505050565b82805462000a049062001052565b90600052602060002090601f01602090048101928262000a28576000855562000a74565b82601f1062000a4357805160ff191683800117855562000a74565b8280016001018555821562000a74579182015b8281111562000a7357825182559160200191906001019062000a56565b5b50905062000a83919062000a87565b5090565b5b8082111562000aa257600081600090555060010162000a88565b5090565b600062000abd62000ab78462000ef1565b62000ec8565b9050808382526020820190508285602086028201111562000add57600080fd5b60005b8581101562000b2c57815167ffffffffffffffff81111562000b0157600080fd5b80860162000b10898262000c4a565b8552602085019450602084019350505060018101905062000ae0565b5050509392505050565b600062000b4d62000b478462000f20565b62000ec8565b9050808382526020820190508285602086028201111562000b6d57600080fd5b60005b8581101562000ba1578162000b86888262000c77565b84526020840193506020830192505060018101905062000b70565b5050509392505050565b600062000bc262000bbc8462000f4f565b62000ec8565b90508281526020810184848401111562000bdb57600080fd5b62000be88482856200101c565b509392505050565b600082601f83011262000c0257600080fd5b815162000c1484826020860162000aa6565b91505092915050565b600082601f83011262000c2f57600080fd5b815162000c4184826020860162000b36565b91505092915050565b600082601f83011262000c5c57600080fd5b815162000c6e84826020860162000bab565b91505092915050565b60008151905062000c88816200115c565b92915050565b60008151905062000c9f8162001176565b92915050565b60008060008060008060008060006101208a8c03121562000cc557600080fd5b60008a015167ffffffffffffffff81111562000ce057600080fd5b62000cee8c828d0162000bf0565b99505060208a015167ffffffffffffffff81111562000d0c57600080fd5b62000d1a8c828d0162000bf0565b98505060408a015167ffffffffffffffff81111562000d3857600080fd5b62000d468c828d0162000c1d565b97505060608a015167ffffffffffffffff81111562000d6457600080fd5b62000d728c828d0162000c1d565b96505060808a015167ffffffffffffffff81111562000d9057600080fd5b62000d9e8c828d0162000c4a565b95505060a08a015167ffffffffffffffff81111562000dbc57600080fd5b62000dca8c828d0162000c4a565b94505060c062000ddd8c828d0162000c77565b93505060e062000df08c828d0162000c77565b92505061010062000e048c828d0162000c8e565b9150509295985092959850929598565b600062000e218262000f85565b62000e2d818562000f90565b935062000e3f8185602086016200101c565b62000e4a816200114b565b840191505092915050565b62000e608162000ffe565b82525050565b6000608082019050818103600083015262000e82818762000e14565b9050818103602083015262000e98818662000e14565b905062000ea9604083018562000e55565b818103606083015262000ebd818462000e14565b905095945050505050565b600062000ed462000ee7565b905062000ee2828262001088565b919050565b6000604051905090565b600067ffffffffffffffff82111562000f0f5762000f0e6200111c565b5b602082029050602081019050919050565b600067ffffffffffffffff82111562000f3e5762000f3d6200111c565b5b602082029050602081019050919050565b600067ffffffffffffffff82111562000f6d5762000f6c6200111c565b5b62000f78826200114b565b9050602081019050919050565b600081519050919050565b600082825260208201905092915050565b600062000fae8262000ffe565b915062000fbb8362000ffe565b9250827fffffffffffffffffffffffffffffffffffffffffffffffffffffffffffffffff0382111562000ff35762000ff2620010be565b5b828201905092915050565b6000819050919050565b600067ffffffffffffffff82169050919050565b60005b838110156200103c5780820151818401526020810190506200101f565b838111156200104c576000848401525b50505050565b600060028204905060018216806200106b57607f821691505b60208210811415620010825762001081620010ed565b5b50919050565b62001093826200114b565b810181811067ffffffffffffffff82111715620010b557620010b46200111c565b5b80604052505050565b7f4e487b7100000000000000000000000000000000000000000000000000000000600052601160045260246000fd5b7f4e487b7100000000000000000000000000000000000000000000000000000000600052602260045260246000fd5b7f4e487b7100000000000000000000000000000000000000000000000000000000600052604160045260246000fd5b6000601f19601f8301169050919050565b620011678162000ffe565b81146200117357600080fd5b50565b620011818162001008565b81146200118d57600080fd5b50565b60805160601c615344620011b660003960008181610a590152610aad01526153446000f3fe608060405234801561001057600080fd5b50600436106101c45760003560e01c806395d89b41116100f9578063b953084e11610097578063e0c8628911610071578063e0c8628914610537578063e89e106a14610541578063e985e9c51461055f578063f8b81ef71461058f576101c4565b8063b953084e146104cb578063c87b56dd146104e9578063c8cf27f414610519576101c4565b8063a22cb465116100d3578063a22cb46514610453578063a9c326791461046f578063aa29354c14610491578063b88d4fde146104af576101c4565b806395d89b41146103e157806398da4c95146103ff578063a0e67e2b14610434576101c4565b806323b27886116101665780636352211e116101405780636352211e1461032157806370a08231146103515780637dcb0e5f146103815780637df124a1146103b1576101c4565b806323b27886146102cd57806323b872dd146102e957806342842e0e14610305576101c4565b806306fdde03116101a257806306fdde0314610247578063081812fc14610265578063095ea7b3146102955780631fe543e3146102b1576101c4565b806301ffc9a7146101c9578063025e7c27146101f95780630665f96114610229575b600080fd5b6101e360048036038101906101de9190613721565b6105ab565b6040516101f0919061419a565b60405180910390f35b610213600480360381019061020e9190613773565b61068d565b604051610220919061407a565b60405180910390f35b6102316106cc565b60405161023e9190614586565b60405180910390f35b61024f610828565b60405161025c9190614208565b60405180910390f35b61027f600480360381019061027a9190613773565b6108ba565b60405161028c919061407a565b60405180910390f35b6102af60048036038101906102aa91906136bc565b61093f565b005b6102cb60048036038101906102c691906137c5565b610a57565b005b6102e760048036038101906102e291906136f8565b610b17565b005b61030360048036038101906102fe91906135b6565b610ebc565b005b61031f600480360381019061031a91906135b6565b610f1c565b005b61033b60048036038101906103369190613773565b610f3c565b604051610348919061407a565b60405180910390f35b61036b60048036038101906103669190613551565b610fee565b60405161037891906145ca565b60405180910390f35b61039b60048036038101906103969190613773565b6110a6565b6040516103a891906145ca565b60405180910390f35b6103cb60048036038101906103c69190613551565b6110ca565b6040516103d891906145ca565b60405180910390f35b6103e96110e2565b6040516103f69190614208565b60405180910390f35b61041960048036038101906104149190613773565b611174565b60405161042b969594939291906145e5565b60405180910390f35b61043c6112c0565b60405161044a929190614141565b60405180910390f35b61046d60048036038101906104689190613680565b6113a9565b005b6104776113bf565b6040516104889594939291906142d7565b60405180910390f35b6104996114f3565b6040516104a691906145ca565b60405180910390f35b6104c960048036038101906104c49190613605565b6114f9565b005b6104d361155b565b6040516104e09190614178565b60405180910390f35b61050360048036038101906104fe9190613773565b611706565b6040516105109190614208565b60405180910390f35b610521611921565b60405161052e91906145a8565b60405180910390f35b61053f611af9565b005b610549611c5c565b60405161055691906145ca565b60405180910390f35b6105796004803603810190610574919061357a565b611c62565b604051610586919061419a565b60405180910390f35b6105a960048036038101906105a49190613773565b611cf6565b005b60007f80ac58cd000000000000000000000000000000000000000000000000000000007bffffffffffffffffffffffffffffffffffffffffffffffffffffffff1916827bffffffffffffffffffffffffffffffffffffffffffffffffffffffff1916148061067657507f5b5e139f000000000000000000000000000000000000000000000000000000007bffffffffffffffffffffffffffffffffffffffffffffffffffffffff1916827bffffffffffffffffffffffffffffffffffffffffffffffffffffffff1916145b8061068657506106858261222e565b5b9050919050565b600d818154811061069d57600080fd5b906000526020600020016000915054906101000a900473ffffffffffffffffffffffffffffffffffffffff1681565b6106d46132cd565b60126040518060a00160405290816000820180546106f1906149dc565b80601f016020809104026020016040519081016040528092919081815260200182805461071d906149dc565b801561076a5780601f1061073f5761010080835404028352916020019161076a565b820191906000526020600020905b81548152906001019060200180831161074d57829003601f168201915b50505050508152602001600182018054610783906149dc565b80601f01602080910402602001604051908101604052809291908181526020018280546107af906149dc565b80156107fc5780601f106107d1576101008083540402835291602001916107fc565b820191906000526020600020905b8154815290600101906020018083116107df57829003601f168201915b505050505081526020016002820154815260200160038201548152602001600482015481525050905090565b606060008054610837906149dc565b80601f0160208091040260200160405190810160405280929190818152602001828054610863906149dc565b80156108b05780601f10610885576101008083540402835291602001916108b0565b820191906000526020600020905b81548152906001019060200180831161089357829003601f168201915b5050505050905090565b60006108c582612298565b610904576040517f08c379a00000000000000000000000000000000000000000000000000000000081526004016108fb90614526565b60405180910390fd5b6004600083815260200190815260200160002060009054906101000a900473ffffffffffffffffffffffffffffffffffffffff169050919050565b600061094a82610f3c565b90508073ffffffffffffffffffffffffffffffffffffffff168373ffffffffffffffffffffffffffffffffffffffff1614156109bb576040517f08c379a00000000000000000000000000000000000000000000000000000000081526004016109b290614546565b60405180910390fd5b8073ffffffffffffffffffffffffffffffffffffffff166109da612304565b73ffffffffffffffffffffffffffffffffffffffff161480610a095750610a0881610a03612304565b611c62565b5b610a48576040517f08c379a0000000000000000000000000000000000000000000000000000000008152600401610a3f90614486565b60405180910390fd5b610a52838361230c565b505050565b7f000000000000000000000000000000000000000000000000000000000000000073ffffffffffffffffffffffffffffffffffffffff163373ffffffffffffffffffffffffffffffffffffffff1614610b0957337f00000000000000000000000000000000000000000000000000000000000000006040517f1cf993f4000000000000000000000000000000000000000000000000000000008152600401610b00929190614095565b60405180910390fd5b610b1382826123c5565b5050565b6000601760003373ffffffffffffffffffffffffffffffffffffffff1673ffffffffffffffffffffffffffffffffffffffff1681526020019081526020016000205490506000601160008381526020019081526020016000209050610c2a6040518060600160405280603c81526020016152d3603c9139826001018054610b9d906149dc565b80601f0160208091040260200160405190810160405280929190818152602001828054610bc9906149dc565b8015610c165780601f10610beb57610100808354040283529160200191610c16565b820191906000526020600020905b815481529060010190602001808311610bf957829003601f168201915b505050505083600301548460050154612429565b610d026040518060400160405280601b81526020017f426f73732025732068617320257320485020616e64202573204144000000000081525060126000018054610c73906149dc565b80601f0160208091040260200160405190810160405280929190818152602001828054610c9f906149dc565b8015610cec5780601f10610cc157610100808354040283529160200191610cec565b820191906000526020600020905b815481529060010190602001808311610ccf57829003601f168201915b5050505050601260020154601260040154612429565b6000816003015411610d49576040517f08c379a0000000000000000000000000000000000000000000000000000000008152600401610d40906144e6565b60405180910390fd5b600060126002015411610d91576040517f08c379a0000000000000000000000000000000000000000000000000000000008152600401610d88906143e6565b60405180910390fd5b80600501546012600201541015610db2576000601260020181905550610de8565b8215610dc8576000601260020181905550610de7565b8060050154601260020154610ddd91906148b6565b6012600201819055505b5b60126004015481600301541015610e085760008160030181905550610e26565b6012600401548160030154610e1d91906148b6565b81600301819055505b610e4d604051806060016040528060258152602001615218602591396012600201546124cb565b610e7360405180606001604052806028815260200161527d6028913982600301546124cb565b7f32bd565ee3f2cb5ddd742bbecd6048d3e9abe90b3827a40c2b72d232e71e3c9d336012600201548360030154604051610eaf9392919061410a565b60405180910390a1505050565b610ecd610ec7612304565b82612567565b610f0c576040517f08c379a0000000000000000000000000000000000000000000000000000000008152600401610f0390614566565b60405180910390fd5b610f17838383612645565b505050565b610f37838383604051806020016040528060008152506114f9565b505050565b6000806002600084815260200190815260200160002060009054906101000a900473ffffffffffffffffffffffffffffffffffffffff169050600073ffffffffffffffffffffffffffffffffffffffff168173ffffffffffffffffffffffffffffffffffffffff161415610fe5576040517f08c379a0000000000000000000000000000000000000000000000000000000008152600401610fdc906144c6565b60405180910390fd5b80915050919050565b60008073ffffffffffffffffffffffffffffffffffffffff168273ffffffffffffffffffffffffffffffffffffffff16141561105f576040517f08c379a0000000000000000000000000000000000000000000000000000000008152600401611056906144a6565b60405180910390fd5b600360008373ffffffffffffffffffffffffffffffffffffffff1673ffffffffffffffffffffffffffffffffffffffff168152602001908152602001600020549050919050565b600e81815481106110b657600080fd5b906000526020600020016000915090505481565b60176020528060005260406000206000915090505481565b6060600180546110f1906149dc565b80601f016020809104026020016040519081016040528092919081815260200182805461111d906149dc565b801561116a5780601f1061113f5761010080835404028352916020019161116a565b820191906000526020600020905b81548152906001019060200180831161114d57829003601f168201915b5050505050905090565b601160205280600052604060002060009150905080600001549080600101805461119d906149dc565b80601f01602080910402602001604051908101604052809291908181526020018280546111c9906149dc565b80156112165780601f106111eb57610100808354040283529160200191611216565b820191906000526020600020905b8154815290600101906020018083116111f957829003601f168201915b50505050509080600201805461122b906149dc565b80601f0160208091040260200160405190810160405280929190818152602001828054611257906149dc565b80156112a45780601f10611279576101008083540402835291602001916112a4565b820191906000526020600020905b81548152906001019060200180831161128757829003601f168201915b5050505050908060030154908060040154908060050154905086565b606080600d600e8180548060200260200160405190810160405280929190818152602001828054801561134857602002820191906000526020600020905b8160009054906101000a900473ffffffffffffffffffffffffffffffffffffffff1673ffffffffffffffffffffffffffffffffffffffff16815260200190600101908083116112fe575b505050505091508080548060200260200160405190810160405280929190818152602001828054801561139a57602002820191906000526020600020905b815481526020019060010190808311611386575b50505050509050915091509091565b6113bb6113b4612304565b83836128ac565b5050565b60128060000180546113d0906149dc565b80601f01602080910402602001604051908101604052809291908181526020018280546113fc906149dc565b80156114495780601f1061141e57610100808354040283529160200191611449565b820191906000526020600020905b81548152906001019060200180831161142c57829003601f168201915b50505050509080600101805461145e906149dc565b80601f016020809104026020016040519081016040528092919081815260200182805461148a906149dc565b80156114d75780601f106114ac576101008083540402835291602001916114d7565b820191906000526020600020905b8154815290600101906020018083116114ba57829003601f168201915b5050505050908060020154908060030154908060040154905085565b600a5481565b61150a611504612304565b83612567565b611549576040517f08c379a000000000000000000000000000000000000000000000000000000000815260040161154090614566565b60405180910390fd5b61155584848484612a19565b50505050565b60606010805480602002602001604051908101604052809291908181526020016000905b828210156116fd57838290600052602060002090600602016040518060c0016040529081600082015481526020016001820180546115bc906149dc565b80601f01602080910402602001604051908101604052809291908181526020018280546115e8906149dc565b80156116355780601f1061160a57610100808354040283529160200191611635565b820191906000526020600020905b81548152906001019060200180831161161857829003601f168201915b5050505050815260200160028201805461164e906149dc565b80601f016020809104026020016040519081016040528092919081815260200182805461167a906149dc565b80156116c75780601f1061169c576101008083540402835291602001916116c7565b820191906000526020600020905b8154815290600101906020018083116116aa57829003601f168201915b5050505050815260200160038201548152602001600482015481526020016005820154815250508152602001906001019061157f565b50505050905090565b60606000601160008481526020019081526020016000206040518060c001604052908160008201548152602001600182018054611742906149dc565b80601f016020809104026020016040519081016040528092919081815260200182805461176e906149dc565b80156117bb5780601f10611790576101008083540402835291602001916117bb565b820191906000526020600020905b81548152906001019060200180831161179e57829003601f168201915b505050505081526020016002820180546117d4906149dc565b80601f0160208091040260200160405190810160405280929190818152602001828054611800906149dc565b801561184d5780601f106118225761010080835404028352916020019161184d565b820191906000526020600020905b81548152906001019060200180831161183057829003601f168201915b505050505081526020016003820154815260200160048201548152602001600582015481525050905060006118858260600151612a75565b905060006118968360800151612a75565b905060006118a78460a00151612a75565b905060006118ed85602001516118bc89612a75565b87604001518787876040516020016118d996959493929190613fb3565b604051602081830303815290604052612c22565b90506000816040516020016119029190614058565b6040516020818303038152906040529050809650505050505050919050565b6119296132fc565b6000601760003373ffffffffffffffffffffffffffffffffffffffff1673ffffffffffffffffffffffffffffffffffffffff1681526020019081526020016000205490506000811115611ae857601160008281526020019081526020016000206040518060c0016040529081600082015481526020016001820180546119ae906149dc565b80601f01602080910402602001604051908101604052809291908181526020018280546119da906149dc565b8015611a275780601f106119fc57610100808354040283529160200191611a27565b820191906000526020600020905b815481529060010190602001808311611a0a57829003601f168201915b50505050508152602001600282018054611a40906149dc565b80601f0160208091040260200160405190810160405280929190818152602001828054611a6c906149dc565b8015611ab95780601f10611a8e57610100808354040283529160200191611ab9565b820191906000526020600020905b815481529060010190602001808311611a9c57829003601f168201915b505050505081526020016003820154815260200160048201548152602001600582015481525050915050611af6565b611af06132fc565b80925050505b90565b600c60009054906101000a900473ffffffffffffffffffffffffffffffffffffffff1673ffffffffffffffffffffffffffffffffffffffff163373ffffffffffffffffffffffffffffffffffffffff1614611b5357600080fd5b600660009054906101000a900473ffffffffffffffffffffffffffffffffffffffff1673ffffffffffffffffffffffffffffffffffffffff16635d3b1d30600854600660149054906101000a900467ffffffffffffffff16600960049054906101000a900461ffff16600960009054906101000a900463ffffffff16600960069054906101000a900463ffffffff166040518663ffffffff1660e01b8152600401611c029594939291906141b5565b602060405180830381600087803b158015611c1c57600080fd5b505af1158015611c30573d6000803e3d6000fd5b505050506040513d601f19601f82011682018060405250810190611c54919061379c565b600b81905550565b600b5481565b6000600560008473ffffffffffffffffffffffffffffffffffffffff1673ffffffffffffffffffffffffffffffffffffffff16815260200190815260200160002060008373ffffffffffffffffffffffffffffffffffffffff1673ffffffffffffffffffffffffffffffffffffffff16815260200190815260200160002060009054906101000a900460ff16905092915050565b6000611d02600f612de0565b9050611d0e3382612dee565b6040518060c0016040528083815260200160108481548110611d59577f4e487b7100000000000000000000000000000000000000000000000000000000600052603260045260246000fd5b90600052602060002090600602016001018054611d75906149dc565b80601f0160208091040260200160405190810160405280929190818152602001828054611da1906149dc565b8015611dee5780601f10611dc357610100808354040283529160200191611dee565b820191906000526020600020905b815481529060010190602001808311611dd157829003601f168201915b5050505050815260200160108481548110611e32577f4e487b7100000000000000000000000000000000000000000000000000000000600052603260045260246000fd5b90600052602060002090600602016002018054611e4e906149dc565b80601f0160208091040260200160405190810160405280929190818152602001828054611e7a906149dc565b8015611ec75780601f10611e9c57610100808354040283529160200191611ec7565b820191906000526020600020905b815481529060010190602001808311611eaa57829003601f168201915b5050505050815260200160108481548110611f0b577f4e487b7100000000000000000000000000000000000000000000000000000000600052603260045260246000fd5b906000526020600020906006020160030154815260200160108481548110611f5c577f4e487b7100000000000000000000000000000000000000000000000000000000600052603260045260246000fd5b906000526020600020906006020160040154815260200160108481548110611fad577f4e487b7100000000000000000000000000000000000000000000000000000000600052603260045260246000fd5b90600052602060002090600602016005015481525060116000838152602001908152602001600020600082015181600001556020820151816001019080519060200190611ffb929190613332565b506040820151816002019080519060200190612018929190613332565b50606082015181600301556080820151816004015560a0820151816005015590505061205d6040518060600160405280602e81526020016152a5602e91398284612e0c565b80601760003373ffffffffffffffffffffffffffffffffffffffff1673ffffffffffffffffffffffffffffffffffffffff16815260200190815260200160002081905550600d339080600181540180825580915050600190039060005260206000200160009091909190916101000a81548173ffffffffffffffffffffffffffffffffffffffff021916908373ffffffffffffffffffffffffffffffffffffffff160217905550600e829080600181540180825580915050600190039060005260206000200160009091909190915055612137600f612218565b7f4bc303fd457a97b4691b9af582ce71868a3d258638c8d4f8c60988a0f0bfb8cd33828460405161216a9392919061410a565b60405180910390a15050565b61221284848484604051602401612190949392919061422a565b6040516020818303038152906040527f8d142cdd000000000000000000000000000000000000000000000000000000007bffffffffffffffffffffffffffffffffffffffffffffffffffffffff19166020820180517bffffffffffffffffffffffffffffffffffffffffffffffffffffffff8381831617835250505050612eab565b50505050565b6001816000016000828254019250508190555050565b60007f01ffc9a7000000000000000000000000000000000000000000000000000000007bffffffffffffffffffffffffffffffffffffffffffffffffffffffff1916827bffffffffffffffffffffffffffffffffffffffffffffffffffffffff1916149050919050565b60008073ffffffffffffffffffffffffffffffffffffffff166002600084815260200190815260200160002060009054906101000a900473ffffffffffffffffffffffffffffffffffffffff1673ffffffffffffffffffffffffffffffffffffffff1614159050919050565b600033905090565b816004600083815260200190815260200160002060006101000a81548173ffffffffffffffffffffffffffffffffffffffff021916908373ffffffffffffffffffffffffffffffffffffffff160217905550808273ffffffffffffffffffffffffffffffffffffffff1661237f83610f3c565b73ffffffffffffffffffffffffffffffffffffffff167f8c5be1e5ebec7d5bd14f71427d1e84f3dd0314c0f7b2291e5b200ac8c7c3b92560405160405180910390a45050565b6001600a82600081518110612403577f4e487b7100000000000000000000000000000000000000000000000000000000600052603260045260246000fd5b60200260200101516124159190614a88565b61241f91906147d5565b600a819055505050565b6124c5848484846040516024016124439493929190614284565b6040516020818303038152906040527fd5cf17d0000000000000000000000000000000000000000000000000000000007bffffffffffffffffffffffffffffffffffffffffffffffffffffffff19166020820180517bffffffffffffffffffffffffffffffffffffffffffffffffffffffff8381831617835250505050612eab565b50505050565b61256382826040516024016124e1929190614338565b6040516020818303038152906040527f9710a9d0000000000000000000000000000000000000000000000000000000007bffffffffffffffffffffffffffffffffffffffffffffffffffffffff19166020820180517bffffffffffffffffffffffffffffffffffffffffffffffffffffffff8381831617835250505050612eab565b5050565b600061257282612298565b6125b1576040517f08c379a00000000000000000000000000000000000000000000000000000000081526004016125a890614466565b60405180910390fd5b60006125bc83610f3c565b90508073ffffffffffffffffffffffffffffffffffffffff168473ffffffffffffffffffffffffffffffffffffffff16148061262b57508373ffffffffffffffffffffffffffffffffffffffff16612613846108ba565b73ffffffffffffffffffffffffffffffffffffffff16145b8061263c575061263b8185611c62565b5b91505092915050565b8273ffffffffffffffffffffffffffffffffffffffff1661266582610f3c565b73ffffffffffffffffffffffffffffffffffffffff16146126bb576040517f08c379a00000000000000000000000000000000000000000000000000000000081526004016126b2906143c6565b60405180910390fd5b600073ffffffffffffffffffffffffffffffffffffffff168273ffffffffffffffffffffffffffffffffffffffff16141561272b576040517f08c379a000000000000000000000000000000000000000000000000000000000815260040161272290614426565b60405180910390fd5b612736838383612ed4565b61274160008261230c565b6001600360008573ffffffffffffffffffffffffffffffffffffffff1673ffffffffffffffffffffffffffffffffffffffff168152602001908152602001600020600082825461279191906148b6565b925050819055506001600360008473ffffffffffffffffffffffffffffffffffffffff1673ffffffffffffffffffffffffffffffffffffffff16815260200190815260200160002060008282546127e891906147d5565b92505081905550816002600083815260200190815260200160002060006101000a81548173ffffffffffffffffffffffffffffffffffffffff021916908373ffffffffffffffffffffffffffffffffffffffff160217905550808273ffffffffffffffffffffffffffffffffffffffff168473ffffffffffffffffffffffffffffffffffffffff167fddf252ad1be2c89b69c2b068fc378daa952ba7f163c4a11628f55a4df523b3ef60405160405180910390a46128a7838383612ed9565b505050565b8173ffffffffffffffffffffffffffffffffffffffff168373ffffffffffffffffffffffffffffffffffffffff16141561291b576040517f08c379a000000000000000000000000000000000000000000000000000000000815260040161291290614446565b60405180910390fd5b80600560008573ffffffffffffffffffffffffffffffffffffffff1673ffffffffffffffffffffffffffffffffffffffff16815260200190815260200160002060008473ffffffffffffffffffffffffffffffffffffffff1673ffffffffffffffffffffffffffffffffffffffff16815260200190815260200160002060006101000a81548160ff0219169083151502179055508173ffffffffffffffffffffffffffffffffffffffff168373ffffffffffffffffffffffffffffffffffffffff167f17307eab39ab6107e8899845ad3d59bd9653f200f220920489ca2b5937696c3183604051612a0c919061419a565b60405180910390a3505050565b612a24848484612645565b612a3084848484612ede565b612a6f576040517f08c379a0000000000000000000000000000000000000000000000000000000008152600401612a66906143a6565b60405180910390fd5b50505050565b60606000821415612abd576040518060400160405280600181526020017f30000000000000000000000000000000000000000000000000000000000000008152509050612c1d565b600082905060005b60008214612aef578080612ad890614a3f565b915050600a82612ae8919061482b565b9150612ac5565b60008167ffffffffffffffff811115612b31577f4e487b7100000000000000000000000000000000000000000000000000000000600052604160045260246000fd5b6040519080825280601f01601f191660200182016040528015612b635781602001600182028036833780820191505090505b5090505b60008514612c1657600182612b7c91906148b6565b9150600a85612b8b9190614a88565b6030612b9791906147d5565b60f81b818381518110612bd3577f4e487b7100000000000000000000000000000000000000000000000000000000600052603260045260246000fd5b60200101907effffffffffffffffffffffffffffffffffffffffffffffffffffffffffffff1916908160001a905350600a85612c0f919061482b565b9450612b67565b8093505050505b919050565b60606000825190506000811415612c4b5760405180602001604052806000815250915050612ddb565b60006003600283612c5c91906147d5565b612c66919061482b565b6004612c72919061485c565b90506000602082612c8391906147d5565b67ffffffffffffffff811115612cc2577f4e487b7100000000000000000000000000000000000000000000000000000000600052604160045260246000fd5b6040519080825280601f01601f191660200182016040528015612cf45781602001600182028036833780820191505090505b509050600060405180606001604052806040815260200161523d604091399050600181016020830160005b86811015612d985760038101905062ffffff818a015116603f8160121c168401518060081b905060ff603f83600c1c1686015116810190508060081b905060ff603f8360061c1686015116810190508060081b905060ff603f831686015116810190508060e01b90508084526004840193505050612d1f565b506003860660018114612db25760028114612dc257612dcd565b613d3d60f01b6002830352612dcd565b603d60f81b60018303525b508484525050819450505050505b919050565b600081600001549050919050565b612e08828260405180602001604052806000815250613075565b5050565b612ea6838383604051602401612e2493929190614368565b6040516020818303038152906040527f969cdd03000000000000000000000000000000000000000000000000000000007bffffffffffffffffffffffffffffffffffffffffffffffffffffffff19166020820180517bffffffffffffffffffffffffffffffffffffffffffffffffffffffff8381831617835250505050612eab565b505050565b60008151905060006a636f6e736f6c652e6c6f679050602083016000808483855afa5050505050565b505050565b505050565b6000612eff8473ffffffffffffffffffffffffffffffffffffffff166130d0565b15613068578373ffffffffffffffffffffffffffffffffffffffff1663150b7a02612f28612304565b8786866040518563ffffffff1660e01b8152600401612f4a94939291906140be565b602060405180830381600087803b158015612f6457600080fd5b505af1925050508015612f9557506040513d601f19601f82011682018060405250810190612f92919061374a565b60015b613018573d8060008114612fc5576040519150601f19603f3d011682016040523d82523d6000602084013e612fca565b606091505b50600081511415613010576040517f08c379a0000000000000000000000000000000000000000000000000000000008152600401613007906143a6565b60405180910390fd5b805181602001fd5b63150b7a0260e01b7bffffffffffffffffffffffffffffffffffffffffffffffffffffffff1916817bffffffffffffffffffffffffffffffffffffffffffffffffffffffff19161491505061306d565b600190505b949350505050565b61307f83836130f3565b61308c6000848484612ede565b6130cb576040517f08c379a00000000000000000000000000000000000000000000000000000000081526004016130c2906143a6565b60405180910390fd5b505050565b6000808273ffffffffffffffffffffffffffffffffffffffff163b119050919050565b600073ffffffffffffffffffffffffffffffffffffffff168273ffffffffffffffffffffffffffffffffffffffff161415613163576040517f08c379a000000000000000000000000000000000000000000000000000000000815260040161315a90614506565b60405180910390fd5b61316c81612298565b156131ac576040517f08c379a00000000000000000000000000000000000000000000000000000000081526004016131a390614406565b60405180910390fd5b6131b860008383612ed4565b6001600360008473ffffffffffffffffffffffffffffffffffffffff1673ffffffffffffffffffffffffffffffffffffffff168152602001908152602001600020600082825461320891906147d5565b92505081905550816002600083815260200190815260200160002060006101000a81548173ffffffffffffffffffffffffffffffffffffffff021916908373ffffffffffffffffffffffffffffffffffffffff160217905550808273ffffffffffffffffffffffffffffffffffffffff16600073ffffffffffffffffffffffffffffffffffffffff167fddf252ad1be2c89b69c2b068fc378daa952ba7f163c4a11628f55a4df523b3ef60405160405180910390a46132c960008383612ed9565b5050565b6040518060a0016040528060608152602001606081526020016000815260200160008152602001600081525090565b6040518060c001604052806000815260200160608152602001606081526020016000815260200160008152602001600081525090565b82805461333e906149dc565b90600052602060002090601f01602090048101928261336057600085556133a7565b82601f1061337957805160ff19168380011785556133a7565b828001600101855582156133a7579182015b828111156133a657825182559160200191906001019061338b565b5b5090506133b491906133b8565b5090565b5b808211156133d15760008160009055506001016133b9565b5090565b60006133e86133e384614679565b614654565b9050808382526020820190508285602086028201111561340757600080fd5b60005b85811015613437578161341d8882613527565b84526020840193506020830192505060018101905061340a565b5050509392505050565b600061345461344f846146a5565b614654565b90508281526020810184848401111561346c57600080fd5b61347784828561499a565b509392505050565b60008135905061348e816151bb565b92915050565b600082601f8301126134a557600080fd5b81356134b58482602086016133d5565b91505092915050565b6000813590506134cd816151d2565b92915050565b6000813590506134e2816151e9565b92915050565b6000815190506134f7816151e9565b92915050565b600082601f83011261350e57600080fd5b813561351e848260208601613441565b91505092915050565b60008135905061353681615200565b92915050565b60008151905061354b81615200565b92915050565b60006020828403121561356357600080fd5b60006135718482850161347f565b91505092915050565b6000806040838503121561358d57600080fd5b600061359b8582860161347f565b92505060206135ac8582860161347f565b9150509250929050565b6000806000606084860312156135cb57600080fd5b60006135d98682870161347f565b93505060206135ea8682870161347f565b92505060406135fb86828701613527565b9150509250925092565b6000806000806080858703121561361b57600080fd5b60006136298782880161347f565b945050602061363a8782880161347f565b935050604061364b87828801613527565b925050606085013567ffffffffffffffff81111561366857600080fd5b613674878288016134fd565b91505092959194509250565b6000806040838503121561369357600080fd5b60006136a18582860161347f565b92505060206136b2858286016134be565b9150509250929050565b600080604083850312156136cf57600080fd5b60006136dd8582860161347f565b92505060206136ee85828601613527565b9150509250929050565b60006020828403121561370a57600080fd5b6000613718848285016134be565b91505092915050565b60006020828403121561373357600080fd5b6000613741848285016134d3565b91505092915050565b60006020828403121561375c57600080fd5b600061376a848285016134e8565b91505092915050565b60006020828403121561378557600080fd5b600061379384828501613527565b91505092915050565b6000602082840312156137ae57600080fd5b60006137bc8482850161353c565b91505092915050565b600080604083850312156137d857600080fd5b60006137e685828601613527565b925050602083013567ffffffffffffffff81111561380357600080fd5b61380f85828601613494565b9150509250929050565b6000613825838361385d565b60208301905092915050565b600061383d8383613e48565b905092915050565b60006138518383613f77565b60208301905092915050565b613866816148ea565b82525050565b613875816148ea565b82525050565b600061388682614706565b6138908185614764565b935061389b836146d6565b8060005b838110156138cc5781516138b38882613819565b97506138be8361473d565b92505060018101905061389f565b5085935050505092915050565b60006138e482614711565b6138ee8185614775565b935083602082028501613900856146e6565b8060005b8581101561393c578484038952815161391d8582613831565b94506139288361474a565b925060208a01995050600181019050613904565b50829750879550505050505092915050565b60006139598261471c565b6139638185614786565b935061396e836146f6565b8060005b8381101561399f5781516139868882613845565b975061399183614757565b925050600181019050613972565b5085935050505092915050565b6139b5816148fc565b82525050565b6139c481614908565b82525050565b60006139d582614727565b6139df8185614797565b93506139ef8185602086016149a9565b6139f881614b75565b840191505092915050565b6000613a0e82614732565b613a1881856147a8565b9350613a288185602086016149a9565b613a3181614b75565b840191505092915050565b6000613a4782614732565b613a5181856147b9565b9350613a618185602086016149a9565b613a6a81614b75565b840191505092915050565b6000613a8082614732565b613a8a81856147ca565b9350613a9a8185602086016149a9565b80840191505092915050565b6000613ab3600b836147ca565b9150613abe82614b86565b600b82019050919050565b6000613ad66032836147b9565b9150613ae182614baf565b604082019050919050565b6000613af96025836147b9565b9150613b0482614bfe565b604082019050919050565b6000613b1c6028836147b9565b9150613b2782614c4d565b604082019050919050565b6000613b3f601c836147b9565b9150613b4a82614c9c565b602082019050919050565b6000613b62600e836147ca565b9150613b6d82614cc5565b600e82019050919050565b6000613b856024836147b9565b9150613b9082614cee565b604082019050919050565b6000613ba86019836147b9565b9150613bb382614d3d565b602082019050919050565b6000613bcb602c836147b9565b9150613bd682614d66565b604082019050919050565b6000613bee6038836147b9565b9150613bf982614db5565b604082019050919050565b6000613c11602a836147b9565b9150613c1c82614e04565b604082019050919050565b6000613c346029836147b9565b9150613c3f82614e53565b604082019050919050565b6000613c57602d836147b9565b9150613c6282614ea2565b604082019050919050565b6000613c7a6004836147ca565b9150613c8582614ef1565b600482019050919050565b6000613c9d6020836147b9565b9150613ca882614f1a565b602082019050919050565b6000613cc0602c836147b9565b9150613ccb82614f43565b604082019050919050565b6000613ce3600a836147ca565b9150613cee82614f92565b600a82019050919050565b6000613d066021836147b9565b9150613d1182614fbb565b604082019050919050565b6000613d29601d836147ca565b9150613d348261500a565b601d82019050919050565b6000613d4c6069836147ca565b9150613d5782615033565b606982019050919050565b6000613d6f6031836147b9565b9150613d7a826150ce565b604082019050919050565b6000613d92603d836147ca565b9150613d9d8261511d565b603d82019050919050565b6000613db5602d836147ca565b9150613dc08261516c565b602d82019050919050565b600060a0830160008301518482036000860152613de88282613a03565b91505060208301518482036020860152613e028282613a03565b9150506040830151613e176040860182613f77565b506060830151613e2a6060860182613f77565b506080830151613e3d6080860182613f77565b508091505092915050565b600060c083016000830151613e606000860182613f77565b5060208301518482036020860152613e788282613a03565b91505060408301518482036040860152613e928282613a03565b9150506060830151613ea76060860182613f77565b506080830151613eba6080860182613f77565b5060a0830151613ecd60a0860182613f77565b508091505092915050565b600060c083016000830151613ef06000860182613f77565b5060208301518482036020860152613f088282613a03565b91505060408301518482036040860152613f228282613a03565b9150506060830151613f376060860182613f77565b506080830151613f4a6080860182613f77565b5060a0830151613f5d60a0860182613f77565b508091505092915050565b613f718161493e565b82525050565b613f808161496c565b82525050565b613f8f8161496c565b82525050565b613f9e81614976565b82525050565b613fad81614986565b82525050565b6000613fbe82613cd6565b9150613fca8289613a75565b9150613fd582613aa6565b9150613fe18288613a75565b9150613fec82613d3f565b9150613ff88287613a75565b915061400382613d85565b915061400f8286613a75565b915061401a82613b55565b91506140268285613a75565b915061403182613da8565b915061403d8284613a75565b915061404882613c6d565b9150819050979650505050505050565b600061406382613d1c565b915061406f8284613a75565b915081905092915050565b600060208201905061408f600083018461386c565b92915050565b60006040820190506140aa600083018561386c565b6140b7602083018461386c565b9392505050565b60006080820190506140d3600083018761386c565b6140e0602083018661386c565b6140ed6040830185613f86565b81810360608301526140ff81846139ca565b905095945050505050565b600060608201905061411f600083018661386c565b61412c6020830185613f86565b6141396040830184613f86565b949350505050565b6000604082019050818103600083015261415b818561387b565b9050818103602083015261416f818461394e565b90509392505050565b6000602082019050818103600083015261419281846138d9565b905092915050565b60006020820190506141af60008301846139ac565b92915050565b600060a0820190506141ca60008301886139bb565b6141d76020830187613fa4565b6141e46040830186613f68565b6141f16060830185613f95565b6141fe6080830184613f95565b9695505050505050565b600060208201905081810360008301526142228184613a3c565b905092915050565b600060808201905081810360008301526142448187613a3c565b905081810360208301526142588186613a3c565b90506142676040830185613f86565b81810360608301526142798184613a3c565b905095945050505050565b6000608082019050818103600083015261429e8187613a3c565b905081810360208301526142b28186613a3c565b90506142c16040830185613f86565b6142ce6060830184613f86565b95945050505050565b600060a08201905081810360008301526142f18188613a3c565b905081810360208301526143058187613a3c565b90506143146040830186613f86565b6143216060830185613f86565b61432e6080830184613f86565b9695505050505050565b600060408201905081810360008301526143528185613a3c565b90506143616020830184613f86565b9392505050565b600060608201905081810360008301526143828186613a3c565b90506143916020830185613f86565b61439e6040830184613f86565b949350505050565b600060208201905081810360008301526143bf81613ac9565b9050919050565b600060208201905081810360008301526143df81613aec565b9050919050565b600060208201905081810360008301526143ff81613b0f565b9050919050565b6000602082019050818103600083015261441f81613b32565b9050919050565b6000602082019050818103600083015261443f81613b78565b9050919050565b6000602082019050818103600083015261445f81613b9b565b9050919050565b6000602082019050818103600083015261447f81613bbe565b9050919050565b6000602082019050818103600083015261449f81613be1565b9050919050565b600060208201905081810360008301526144bf81613c04565b9050919050565b600060208201905081810360008301526144df81613c27565b9050919050565b600060208201905081810360008301526144ff81613c4a565b9050919050565b6000602082019050818103600083015261451f81613c90565b9050919050565b6000602082019050818103600083015261453f81613cb3565b9050919050565b6000602082019050818103600083015261455f81613cf9565b9050919050565b6000602082019050818103600083015261457f81613d62565b9050919050565b600060208201905081810360008301526145a08184613dcb565b905092915050565b600060208201905081810360008301526145c28184613ed8565b905092915050565b60006020820190506145df6000830184613f86565b92915050565b600060c0820190506145fa6000830189613f86565b818103602083015261460c8188613a3c565b905081810360408301526146208187613a3c565b905061462f6060830186613f86565b61463c6080830185613f86565b61464960a0830184613f86565b979650505050505050565b600061465e61466f565b905061466a8282614a0e565b919050565b6000604051905090565b600067ffffffffffffffff82111561469457614693614b46565b5b602082029050602081019050919050565b600067ffffffffffffffff8211156146c0576146bf614b46565b5b6146c982614b75565b9050602081019050919050565b6000819050602082019050919050565b6000819050602082019050919050565b6000819050602082019050919050565b600081519050919050565b600081519050919050565b600081519050919050565b600081519050919050565b600081519050919050565b6000602082019050919050565b6000602082019050919050565b6000602082019050919050565b600082825260208201905092915050565b600082825260208201905092915050565b600082825260208201905092915050565b600082825260208201905092915050565b600082825260208201905092915050565b600082825260208201905092915050565b600081905092915050565b60006147e08261496c565b91506147eb8361496c565b9250827fffffffffffffffffffffffffffffffffffffffffffffffffffffffffffffffff038211156148205761481f614ab9565b5b828201905092915050565b60006148368261496c565b91506148418361496c565b92508261485157614850614ae8565b5b828204905092915050565b60006148678261496c565b91506148728361496c565b9250817fffffffffffffffffffffffffffffffffffffffffffffffffffffffffffffffff04831182151516156148ab576148aa614ab9565b5b828202905092915050565b60006148c18261496c565b91506148cc8361496c565b9250828210156148df576148de614ab9565b5b828203905092915050565b60006148f58261494c565b9050919050565b60008115159050919050565b6000819050919050565b60007fffffffff0000000000000000000000000000000000000000000000000000000082169050919050565b600061ffff82169050919050565b600073ffffffffffffffffffffffffffffffffffffffff82169050919050565b6000819050919050565b600063ffffffff82169050919050565b600067ffffffffffffffff82169050919050565b82818337600083830152505050565b60005b838110156149c75780820151818401526020810190506149ac565b838111156149d6576000848401525b50505050565b600060028204905060018216806149f457607f821691505b60208210811415614a0857614a07614b17565b5b50919050565b614a1782614b75565b810181811067ffffffffffffffff82111715614a3657614a35614b46565b5b80604052505050565b6000614a4a8261496c565b91507fffffffffffffffffffffffffffffffffffffffffffffffffffffffffffffffff821415614a7d57614a7c614ab9565b5b600182019050919050565b6000614a938261496c565b9150614a9e8361496c565b925082614aae57614aad614ae8565b5b828206905092915050565b7f4e487b7100000000000000000000000000000000000000000000000000000000600052601160045260246000fd5b7f4e487b7100000000000000000000000000000000000000000000000000000000600052601260045260246000fd5b7f4e487b7100000000000000000000000000000000000000000000000000000000600052602260045260246000fd5b7f4e487b7100000000000000000000000000000000000000000000000000000000600052604160045260246000fd5b6000601f19601f8301169050919050565b7f202d2d204e465420233a20000000000000000000000000000000000000000000600082015250565b7f4552433732313a207472616e7366657220746f206e6f6e20455243373231526560008201527f63656976657220696d706c656d656e7465720000000000000000000000000000602082015250565b7f4552433732313a207472616e736665722066726f6d20696e636f72726563742060008201527f6f776e6572000000000000000000000000000000000000000000000000000000602082015250565b7f4572726f723a20626f7373206d757374206861766520485020746f206174746160008201527f636b20626f73732e000000000000000000000000000000000000000000000000602082015250565b7f4552433732313a20746f6b656e20616c7265616479206d696e74656400000000600082015250565b7f2c20226d61785f76616c7565223a000000000000000000000000000000000000600082015250565b7f4552433732313a207472616e7366657220746f20746865207a65726f2061646460008201527f7265737300000000000000000000000000000000000000000000000000000000602082015250565b7f4552433732313a20617070726f766520746f2063616c6c657200000000000000600082015250565b7f4552433732313a206f70657261746f7220717565727920666f72206e6f6e657860008201527f697374656e7420746f6b656e0000000000000000000000000000000000000000602082015250565b7f4552433732313a20617070726f76652063616c6c6572206973206e6f74206f7760008201527f6e6572206e6f7220617070726f76656420666f7220616c6c0000000000000000602082015250565b7f4552433732313a2062616c616e636520717565727920666f7220746865207a6560008201527f726f206164647265737300000000000000000000000000000000000000000000602082015250565b7f4552433732313a206f776e657220717565727920666f72206e6f6e657869737460008201527f656e7420746f6b656e0000000000000000000000000000000000000000000000602082015250565b7f4572726f723a20636861726163746572206d757374206861766520485020746f60008201527f2061747461636b20626f73732e00000000000000000000000000000000000000602082015250565b7f7d205d7d00000000000000000000000000000000000000000000000000000000600082015250565b7f4552433732313a206d696e7420746f20746865207a65726f2061646472657373600082015250565b7f4552433732313a20617070726f76656420717565727920666f72206e6f6e657860008201527f697374656e7420746f6b656e0000000000000000000000000000000000000000602082015250565b7f7b226e616d65223a202200000000000000000000000000000000000000000000600082015250565b7f4552433732313a20617070726f76616c20746f2063757272656e74206f776e6560008201527f7200000000000000000000000000000000000000000000000000000000000000602082015250565b7f646174613a6170706c69636174696f6e2f6a736f6e3b6261736536342c000000600082015250565b7f222c20226465736372697074696f6e223a20225468697320697320616e204e4660008201527f542074686174206c6574732070656f706c6520706c617920696e20746865206760208201527f616d65204d657461766572736520536c6179657221222c2022696d616765223a60408201527f2022697066733a2f2f0000000000000000000000000000000000000000000000606082015250565b7f4552433732313a207472616e736665722063616c6c6572206973206e6f74206f60008201527f776e6572206e6f7220617070726f766564000000000000000000000000000000602082015250565b7f222c202261747472696275746573223a205b207b202274726169745f7479706560008201527f223a20224865616c746820506f696e7473222c202276616c7565223a20000000602082015250565b7f7d2c207b202274726169745f74797065223a202241747461636b2044616d616760008201527f65222c202276616c7565223a2000000000000000000000000000000000000000602082015250565b6151c4816148ea565b81146151cf57600080fd5b50565b6151db816148fc565b81146151e657600080fd5b50565b6151f281614912565b81146151fd57600080fd5b50565b6152098161496c565b811461521457600080fd5b5056fe506c617965722061747461636b656420626f73732e204e657720626f73732068703a2025734142434445464748494a4b4c4d4e4f505152535455565758595a6162636465666768696a6b6c6d6e6f707172737475767778797a303132333435363738392b2f426f73732061747461636b656420706c617965722e204e657720706c617965722068703a2025730a4d696e746564204e465420772f20746f6b656e496420257320616e6420636861726163746572496e6465782025730a506c6179657220772f206368617261637465722025732061626f757420746f2061747461636b2e2048617320257320485020616e64202573204144a26469706673582212208a77a43b5d5a52ce8ca46fe095b637b7d178bdbbf5540c0acf57d4527afa7bdc64736f6c63430008040033446f6e6520696e697469616c697a696e6720257320772f2048502025732c20696d67202573446f6e6520696e697469616c697a696e6720626f737320257320772f2048502025732c20696d67202573",
  "linkReferences": {},
  "deployedLinkReferences": {}
}